{
  "contractName": "Issue",
  "abi": [
    {
      "constant": true,
      "inputs": [
        {
          "name": "",
          "type": "address"
        }
      ],
      "name": "contributors",
      "outputs": [
        {
          "name": "",
          "type": "uint256"
        }
      ],
      "payable": false,
      "stateMutability": "view",
      "type": "function"
    },
    {
      "constant": true,
      "inputs": [
        {
          "name": "",
          "type": "address"
        },
        {
          "name": "",
          "type": "uint256"
        }
      ],
      "name": "verifications",
      "outputs": [
        {
          "name": "",
          "type": "string"
        }
      ],
      "payable": false,
      "stateMutability": "view",
      "type": "function"
    },
    {
      "inputs": [],
      "payable": false,
      "stateMutability": "nonpayable",
      "type": "constructor"
    },
    {
      "constant": false,
      "inputs": [],
      "name": "contribute",
      "outputs": [
        {
          "name": "",
          "type": "uint256"
        }
      ],
      "payable": true,
      "stateMutability": "payable",
      "type": "function"
    },
    {
      "constant": false,
      "inputs": [
        {
          "name": "lobbyist",
          "type": "address"
        },
        {
          "name": "ipfsHash",
          "type": "string"
        }
      ],
      "name": "verify",
      "outputs": [
        {
          "name": "",
          "type": "address"
        }
      ],
      "payable": false,
      "stateMutability": "nonpayable",
      "type": "function"
    },
    {
      "constant": true,
      "inputs": [],
      "name": "getTotalContributions",
      "outputs": [
        {
          "name": "",
          "type": "uint256"
        }
      ],
      "payable": false,
      "stateMutability": "view",
      "type": "function"
    },
    {
      "constant": true,
      "inputs": [],
      "name": "getContribution",
      "outputs": [
        {
          "name": "",
          "type": "uint256"
        }
      ],
      "payable": false,
      "stateMutability": "view",
      "type": "function"
    }
  ],
  "bytecode": "0x606060405233600460006101000a81548173ffffffffffffffffffffffffffffffffffffffff021916908373ffffffffffffffffffffffffffffffffffffffff160217905550341561005057600080fd5b60008081905550600060038190555061087f8061006e6000396000f300606060405260043610610078576000357c0100000000000000000000000000000000000000000000000000000000900463ffffffff1680631f6d49421461007d57806346db089d146100ca578063d7bb99ba14610185578063ddf556d0146101a3578063e8fc9273146101cc578063f10fdf5c14610288575b600080fd5b341561008857600080fd5b6100b4600480803573ffffffffffffffffffffffffffffffffffffffff169060200190919050506102b1565b6040518082815260200191505060405180910390f35b34156100d557600080fd5b61010a600480803573ffffffffffffffffffffffffffffffffffffffff169060200190919080359060200190919050506102c9565b6040518080602001828103825283818151815260200191508051906020019080838360005b8381101561014a57808201518184015260208101905061012f565b50505050905090810190601f1680156101775780820380516001836020036101000a031916815260200191505b509250505060405180910390f35b61018d610392565b6040518082815260200191505060405180910390f35b34156101ae57600080fd5b6101b66104df565b6040518082815260200191505060405180910390f35b34156101d757600080fd5b610246600480803573ffffffffffffffffffffffffffffffffffffffff1690602001909190803590602001908201803590602001908080601f016020809104026020016040519081016040528093929190818152602001838380828437820191505050505050919050506104e8565b604051808273ffffffffffffffffffffffffffffffffffffffff1673ffffffffffffffffffffffffffffffffffffffff16815260200191505060405180910390f35b341561029357600080fd5b61029b6106a9565b6040518082815260200191505060405180910390f35b60016020528060005260406000206000915090505481565b6002602052816000526040600020818154811015156102e457fe5b9060005260206000209001600091509150508054600181600116156101000203166002900480601f01602080910402602001604051908101604052809291908181526020018280546001816001161561010002031660029004801561038a5780601f1061035f5761010080835404028352916020019161038a565b820191906000526020600020905b81548152906001019060200180831161036d57829003601f168201915b505050505081565b6000806000341115156103a457600080fd5b349050600460009054906101000a900473ffffffffffffffffffffffffffffffffffffffff1673ffffffffffffffffffffffffffffffffffffffff166338eada1c336040518263ffffffff167c0100000000000000000000000000000000000000000000000000000000028152600401808273ffffffffffffffffffffffffffffffffffffffff1673ffffffffffffffffffffffffffffffffffffffff168152602001915050600060405180830381600087803b151561046357600080fd5b6102c65a03f1151561047457600080fd5b505050610483600054826106f0565b60008190555080600160003373ffffffffffffffffffffffffffffffffffffffff1673ffffffffffffffffffffffffffffffffffffffff1681526020019081526020016000206000828254019250508190555060005491505090565b60008054905090565b6000600260008473ffffffffffffffffffffffffffffffffffffffff1673ffffffffffffffffffffffffffffffffffffffff168152602001908152602001600020805480600101828161053b919061070e565b91600052602060002090016000849091909150908051906020019061056192919061073a565b5050600460009054906101000a900473ffffffffffffffffffffffffffffffffffffffff1673ffffffffffffffffffffffffffffffffffffffff1663d1672b9b84846040518363ffffffff167c0100000000000000000000000000000000000000000000000000000000028152600401808373ffffffffffffffffffffffffffffffffffffffff1673ffffffffffffffffffffffffffffffffffffffff16815260200180602001828103825283818151815260200191508051906020019080838360005b83811015610640578082015181840152602081019050610625565b50505050905090810190601f16801561066d5780820380516001836020036101000a031916815260200191505b509350505050600060405180830381600087803b151561068c57600080fd5b6102c65a03f1151561069d57600080fd5b50505082905092915050565b6000600160003373ffffffffffffffffffffffffffffffffffffffff1673ffffffffffffffffffffffffffffffffffffffff16815260200190815260200160002054905090565b600080828401905083811015151561070457fe5b8091505092915050565b8154818355818115116107355781836000526020600020918201910161073491906107ba565b5b505050565b828054600181600116156101000203166002900490600052602060002090601f016020900481019282601f1061077b57805160ff19168380011785556107a9565b828001600101855582156107a9579182015b828111156107a857825182559160200191906001019061078d565b5b5090506107b691906107e6565b5090565b6107e391905b808211156107df57600081816107d6919061080b565b506001016107c0565b5090565b90565b61080891905b808211156108045760008160009055506001016107ec565b5090565b90565b50805460018160011615610100020316600290046000825580601f106108315750610850565b601f01602090049060005260206000209081019061084f91906107e6565b5b505600a165627a7a72305820f1deae8c5fd286e6436744fa409afc988870364dba65e0a102d07f4072f7acc90029",
  "source": "pragma solidity ^0.4.17;\nimport \"../node_modules/zeppelin-solidity/contracts/math/SafeMath.sol\";\nimport \"./voting_contract.sol\";\n\ncontract Issue {\n    uint256 totalContributions;\n    mapping(address => uint256) public contributors;\n    mapping(address => string[]) public verifications;\n    uint256 tokenCount;\n    Vote vote = Vote(msg.sender);\n\n    function Issue() public {\n        totalContributions = 0;\n        tokenCount = 0;\n    }\n\n    function contribute() public payable returns(uint256) {\n        require(msg.value > 0);\n        uint256 amount = msg.value;\n\n        vote.addAddress(msg.sender);                    \n\n        totalContributions = SafeMath.add(totalContributions, amount);\n        contributors[msg.sender] += amount;\n\n        return totalContributions;\n    }\n\n    function verify(address lobbyist, string ipfsHash) public returns(address) {\n        verifications[lobbyist].push(ipfsHash);\n        vote.addVerificationDocument(lobbyist, ipfsHash);\n        return lobbyist;\n    }\n\n    function getTotalContributions() public view returns(uint256) {\n        return totalContributions;\n    }\n\n    function getContribution() public view returns(uint256) {\n        return contributors[msg.sender];\n    }\n\n    // function initiateVote() public {\n    //     vote.notifyVoters();\n    // }\n}\n",
  "sourcePath": "/Users/siromivel/code/eth_denver/hack/lobbydist/contracts/issue_contract.sol",
  "compiler": {
    "name": "solc",
    "version": "0.4.19+commit.c4cbbb05.Emscripten.clang"
  },
  "schemaVersion": "1.0.1",
  "updatedAt": "2018-02-18T05:59:30.581Z"
}