{
  "contractName": "LobbyDist",
  "abi": [
    {
      "constant": false,
      "inputs": [],
      "name": "createIssue",
      "outputs": [
        {
          "name": "",
          "type": "address[]"
        }
      ],
      "payable": false,
      "stateMutability": "nonpayable",
      "type": "function"
    },
    {
      "constant": true,
      "inputs": [],
      "name": "getIssues",
      "outputs": [
        {
          "name": "",
          "type": "address[]"
        }
      ],
      "payable": false,
      "stateMutability": "view",
      "type": "function"
    }
  ],
  "bytecode": "0x6060604052341561000f57600080fd5b6103688061001e6000396000f30060606040526004361061004c576000357c0100000000000000000000000000000000000000000000000000000000900463ffffffff1680634434f97314610051578063907d57aa146100bb575b600080fd5b341561005c57600080fd5b610064610125565b6040518080602001828103825283818151815260200191508051906020019060200280838360005b838110156100a757808201518184015260208101905061008c565b505050509050019250505060405180910390f35b34156100c657600080fd5b6100ce6101b9565b6040518080602001828103825283818151815260200191508051906020019060200280838360005b838110156101115780820151818401526020810190506100f6565b505050509050019250505060405180910390f35b61012d6102d7565b60018054806020026020016040519081016040528092919081815260200182805480156101af57602002820191906000526020600020905b8160009054906101000a900473ffffffffffffffffffffffffffffffffffffffff1673ffffffffffffffffffffffffffffffffffffffff1681526020019060010190808311610165575b5050505050905090565b6101c16102d7565b60008060009054906101000a900473ffffffffffffffffffffffffffffffffffffffff169050600180548060010182816101fb91906102eb565b9160005260206000209001600083909190916101000a81548173ffffffffffffffffffffffffffffffffffffffff021916908373ffffffffffffffffffffffffffffffffffffffff1602179055505060018054806020026020016040519081016040528092919081815260200182805480156102cc57602002820191906000526020600020905b8160009054906101000a900473ffffffffffffffffffffffffffffffffffffffff1673ffffffffffffffffffffffffffffffffffffffff1681526020019060010190808311610282575b505050505091505090565b602060405190810160405280600081525090565b815481835581811511610312578183600052602060002091820191016103119190610317565b5b505050565b61033991905b8082111561033557600081600090555060010161031d565b5090565b905600a165627a7a72305820eb7dac8a704f1ee885deb85f7a5bf6828c697f934bf730e1a3c03bd458c2159f0029",
  "source": "pragma solidity ^0.4.17;\nimport \"./issue_contract.sol\";\n\ncontract LobbyDist {\n    address owner;\n    address[] issues;\n\n    function createIssue() public returns(address[]) {\n        Issue issue = Issue(owner);\n        issues.push(issue);\n\n        return issues;\n    }\n\n    function getIssues() public view returns(address[]) {\n        return issues;\n    }\n}",
  "sourcePath": "/Users/siromivel/code/eth_denver/hack/lobbydist/contracts/lobbydist_master.sol",
  "compiler": {
    "name": "solc",
    "version": "0.4.19+commit.c4cbbb05.Emscripten.clang"
  },
  "schemaVersion": "1.0.1",
  "updatedAt": "2018-02-18T05:59:30.582Z"
}